{
  "contractName": "BhtToken",
  "abi": [
    {
      "inputs": [
        {
          "internalType": "uint256",
          "name": "_initamt",
          "type": "uint256"
        }
      ],
      "stateMutability": "nonpayable",
      "type": "constructor"
    },
    {
      "anonymous": false,
      "inputs": [
        {
          "indexed": true,
          "internalType": "address",
          "name": "owner",
          "type": "address"
        },
        {
          "indexed": true,
          "internalType": "address",
          "name": "spender",
          "type": "address"
        },
        {
          "indexed": false,
          "internalType": "uint256",
          "name": "value",
          "type": "uint256"
        }
      ],
      "name": "Approval",
      "type": "event"
    },
    {
      "anonymous": false,
      "inputs": [
        {
          "indexed": true,
          "internalType": "address",
          "name": "from",
          "type": "address"
        },
        {
          "indexed": true,
          "internalType": "address",
          "name": "to",
          "type": "address"
        },
        {
          "indexed": false,
          "internalType": "uint256",
          "name": "value",
          "type": "uint256"
        }
      ],
      "name": "Transfer",
      "type": "event"
    },
    {
      "inputs": [
        {
          "internalType": "address",
          "name": "owner",
          "type": "address"
        },
        {
          "internalType": "address",
          "name": "spender",
          "type": "address"
        }
      ],
      "name": "allowance",
      "outputs": [
        {
          "internalType": "uint256",
          "name": "",
          "type": "uint256"
        }
      ],
      "stateMutability": "view",
      "type": "function",
      "constant": true
    },
    {
      "inputs": [
        {
          "internalType": "address",
          "name": "spender",
          "type": "address"
        },
        {
          "internalType": "uint256",
          "name": "amount",
          "type": "uint256"
        }
      ],
      "name": "approve",
      "outputs": [
        {
          "internalType": "bool",
          "name": "",
          "type": "bool"
        }
      ],
      "stateMutability": "nonpayable",
      "type": "function"
    },
    {
      "inputs": [
        {
          "internalType": "address",
          "name": "account",
          "type": "address"
        }
      ],
      "name": "balanceOf",
      "outputs": [
        {
          "internalType": "uint256",
          "name": "",
          "type": "uint256"
        }
      ],
      "stateMutability": "view",
      "type": "function",
      "constant": true
    },
    {
      "inputs": [],
      "name": "decimals",
      "outputs": [
        {
          "internalType": "uint8",
          "name": "",
          "type": "uint8"
        }
      ],
      "stateMutability": "view",
      "type": "function",
      "constant": true
    },
    {
      "inputs": [
        {
          "internalType": "address",
          "name": "spender",
          "type": "address"
        },
        {
          "internalType": "uint256",
          "name": "subtractedValue",
          "type": "uint256"
        }
      ],
      "name": "decreaseAllowance",
      "outputs": [
        {
          "internalType": "bool",
          "name": "",
          "type": "bool"
        }
      ],
      "stateMutability": "nonpayable",
      "type": "function"
    },
    {
      "inputs": [
        {
          "internalType": "address",
          "name": "spender",
          "type": "address"
        },
        {
          "internalType": "uint256",
          "name": "addedValue",
          "type": "uint256"
        }
      ],
      "name": "increaseAllowance",
      "outputs": [
        {
          "internalType": "bool",
          "name": "",
          "type": "bool"
        }
      ],
      "stateMutability": "nonpayable",
      "type": "function"
    },
    {
      "inputs": [],
      "name": "name",
      "outputs": [
        {
          "internalType": "string",
          "name": "",
          "type": "string"
        }
      ],
      "stateMutability": "view",
      "type": "function",
      "constant": true
    },
    {
      "inputs": [],
      "name": "symbol",
      "outputs": [
        {
          "internalType": "string",
          "name": "",
          "type": "string"
        }
      ],
      "stateMutability": "view",
      "type": "function",
      "constant": true
    },
    {
      "inputs": [],
      "name": "totalSupply",
      "outputs": [
        {
          "internalType": "uint256",
          "name": "",
          "type": "uint256"
        }
      ],
      "stateMutability": "view",
      "type": "function",
      "constant": true
    },
    {
      "inputs": [
        {
          "internalType": "address",
          "name": "recipient",
          "type": "address"
        },
        {
          "internalType": "uint256",
          "name": "amount",
          "type": "uint256"
        }
      ],
      "name": "transfer",
      "outputs": [
        {
          "internalType": "bool",
          "name": "",
          "type": "bool"
        }
      ],
      "stateMutability": "nonpayable",
      "type": "function"
    },
    {
      "inputs": [
        {
          "internalType": "address",
          "name": "sender",
          "type": "address"
        },
        {
          "internalType": "address",
          "name": "recipient",
          "type": "address"
        },
        {
          "internalType": "uint256",
          "name": "amount",
          "type": "uint256"
        }
      ],
      "name": "transferFrom",
      "outputs": [
        {
          "internalType": "bool",
          "name": "",
          "type": "bool"
        }
      ],
      "stateMutability": "nonpayable",
      "type": "function"
    },
    {
      "inputs": [
        {
          "internalType": "uint256",
          "name": "amount",
          "type": "uint256"
        }
      ],
      "name": "giveCoin",
      "outputs": [],
      "stateMutability": "payable",
      "type": "function",
      "payable": true
    }
  ],
  "bytecode": "0x60806040523480156200001157600080fd5b5060405162001ba038038062001ba0833981810160405281019062000037919062000363565b6040518060400160405280600881526020017f426874546f6b656e0000000000000000000000000000000000000000000000008152506040518060400160405280600481526020017f42485454000000000000000000000000000000000000000000000000000000008152508160039080519060200190620000bb92919062000273565b508060049080519060200190620000d492919062000273565b505050620000e93382620000f060201b60201c565b5062000537565b600073ffffffffffffffffffffffffffffffffffffffff168273ffffffffffffffffffffffffffffffffffffffff16141562000163576040517f08c379a00000000000000000000000000000000000000000000000000000000081526004016200015a90620003f6565b60405180910390fd5b62000177600083836200026960201b60201c565b80600260008282546200018b919062000447565b92505081905550806000808473ffffffffffffffffffffffffffffffffffffffff1673ffffffffffffffffffffffffffffffffffffffff1681526020019081526020016000206000828254620001e2919062000447565b925050819055508173ffffffffffffffffffffffffffffffffffffffff16600073ffffffffffffffffffffffffffffffffffffffff167fddf252ad1be2c89b69c2b068fc378daa952ba7f163c4a11628f55a4df523b3ef83604051620002499190620004b5565b60405180910390a362000265600083836200026e60201b60201c565b5050565b505050565b505050565b828054620002819062000501565b90600052602060002090601f016020900481019282620002a55760008555620002f1565b82601f10620002c057805160ff1916838001178555620002f1565b82800160010185558215620002f1579182015b82811115620002f0578251825591602001919060010190620002d3565b5b50905062000300919062000304565b5090565b5b808211156200031f57600081600090555060010162000305565b5090565b600080fd5b6000819050919050565b6200033d8162000328565b81146200034957600080fd5b50565b6000815190506200035d8162000332565b92915050565b6000602082840312156200037c576200037b62000323565b5b60006200038c848285016200034c565b91505092915050565b600082825260208201905092915050565b7f45524332303a206d696e7420746f20746865207a65726f206164647265737300600082015250565b6000620003de601f8362000395565b9150620003eb82620003a6565b602082019050919050565b600060208201905081810360008301526200041181620003cf565b9050919050565b7f4e487b7100000000000000000000000000000000000000000000000000000000600052601160045260246000fd5b6000620004548262000328565b9150620004618362000328565b9250827fffffffffffffffffffffffffffffffffffffffffffffffffffffffffffffffff0382111562000499576200049862000418565b5b828201905092915050565b620004af8162000328565b82525050565b6000602082019050620004cc6000830184620004a4565b92915050565b7f4e487b7100000000000000000000000000000000000000000000000000000000600052602260045260246000fd5b600060028204905060018216806200051a57607f821691505b60208210811415620005315762000530620004d2565b5b50919050565b61165980620005476000396000f3fe6080604052600436106100a75760003560e01c80634b6a59ce116100645780634b6a59ce146101e457806370a082311461020057806395d89b411461023d578063a457c2d714610268578063a9059cbb146102a5578063dd62ed3e146102e2576100a7565b806306fdde03146100ac578063095ea7b3146100d757806318160ddd1461011457806323b872dd1461013f578063313ce5671461017c57806339509351146101a7575b600080fd5b3480156100b857600080fd5b506100c161031f565b6040516100ce9190610e54565b60405180910390f35b3480156100e357600080fd5b506100fe60048036038101906100f99190610f0f565b6103b1565b60405161010b9190610f6a565b60405180910390f35b34801561012057600080fd5b506101296103cf565b6040516101369190610f94565b60405180910390f35b34801561014b57600080fd5b5061016660048036038101906101619190610faf565b6103d9565b6040516101739190610f6a565b60405180910390f35b34801561018857600080fd5b506101916104d1565b60405161019e919061101e565b60405180910390f35b3480156101b357600080fd5b506101ce60048036038101906101c99190610f0f565b6104da565b6040516101db9190610f6a565b60405180910390f35b6101fe60048036038101906101f99190611039565b610586565b005b34801561020c57600080fd5b5061022760048036038101906102229190611066565b610593565b6040516102349190610f94565b60405180910390f35b34801561024957600080fd5b506102526105db565b60405161025f9190610e54565b60405180910390f35b34801561027457600080fd5b5061028f600480360381019061028a9190610f0f565b61066d565b60405161029c9190610f6a565b60405180910390f35b3480156102b157600080fd5b506102cc60048036038101906102c79190610f0f565b610758565b6040516102d99190610f6a565b60405180910390f35b3480156102ee57600080fd5b5061030960048036038101906103049190611093565b610776565b6040516103169190610f94565b60405180910390f35b60606003805461032e90611102565b80601f016020809104026020016040519081016040528092919081815260200182805461035a90611102565b80156103a75780601f1061037c576101008083540402835291602001916103a7565b820191906000526020600020905b81548152906001019060200180831161038a57829003601f168201915b5050505050905090565b60006103c56103be6107fd565b8484610805565b6001905092915050565b6000600254905090565b60006103e68484846109d0565b6000600160008673ffffffffffffffffffffffffffffffffffffffff1673ffffffffffffffffffffffffffffffffffffffff16815260200190815260200160002060006104316107fd565b73ffffffffffffffffffffffffffffffffffffffff1673ffffffffffffffffffffffffffffffffffffffff168152602001908152602001600020549050828110156104b1576040517f08c379a00000000000000000000000000000000000000000000000000000000081526004016104a8906111a6565b60405180910390fd5b6104c5856104bd6107fd565b858403610805565b60019150509392505050565b60006012905090565b600061057c6104e76107fd565b8484600160006104f56107fd565b73ffffffffffffffffffffffffffffffffffffffff1673ffffffffffffffffffffffffffffffffffffffff16815260200190815260200160002060008873ffffffffffffffffffffffffffffffffffffffff1673ffffffffffffffffffffffffffffffffffffffff1681526020019081526020016000205461057791906111f5565b610805565b6001905092915050565b6105903382610c51565b50565b60008060008373ffffffffffffffffffffffffffffffffffffffff1673ffffffffffffffffffffffffffffffffffffffff168152602001908152602001600020549050919050565b6060600480546105ea90611102565b80601f016020809104026020016040519081016040528092919081815260200182805461061690611102565b80156106635780601f1061063857610100808354040283529160200191610663565b820191906000526020600020905b81548152906001019060200180831161064657829003601f168201915b5050505050905090565b6000806001600061067c6107fd565b73ffffffffffffffffffffffffffffffffffffffff1673ffffffffffffffffffffffffffffffffffffffff16815260200190815260200160002060008573ffffffffffffffffffffffffffffffffffffffff1673ffffffffffffffffffffffffffffffffffffffff16815260200190815260200160002054905082811015610739576040517f08c379a0000000000000000000000000000000000000000000000000000000008152600401610730906112bd565b60405180910390fd5b61074d6107446107fd565b85858403610805565b600191505092915050565b600061076c6107656107fd565b84846109d0565b6001905092915050565b6000600160008473ffffffffffffffffffffffffffffffffffffffff1673ffffffffffffffffffffffffffffffffffffffff16815260200190815260200160002060008373ffffffffffffffffffffffffffffffffffffffff1673ffffffffffffffffffffffffffffffffffffffff16815260200190815260200160002054905092915050565b600033905090565b600073ffffffffffffffffffffffffffffffffffffffff168373ffffffffffffffffffffffffffffffffffffffff161415610875576040517f08c379a000000000000000000000000000000000000000000000000000000000815260040161086c9061134f565b60405180910390fd5b600073ffffffffffffffffffffffffffffffffffffffff168273ffffffffffffffffffffffffffffffffffffffff1614156108e5576040517f08c379a00000000000000000000000000000000000000000000000000000000081526004016108dc906113e1565b60405180910390fd5b80600160008573ffffffffffffffffffffffffffffffffffffffff1673ffffffffffffffffffffffffffffffffffffffff16815260200190815260200160002060008473ffffffffffffffffffffffffffffffffffffffff1673ffffffffffffffffffffffffffffffffffffffff168152602001908152602001600020819055508173ffffffffffffffffffffffffffffffffffffffff168373ffffffffffffffffffffffffffffffffffffffff167f8c5be1e5ebec7d5bd14f71427d1e84f3dd0314c0f7b2291e5b200ac8c7c3b925836040516109c39190610f94565b60405180910390a3505050565b600073ffffffffffffffffffffffffffffffffffffffff168373ffffffffffffffffffffffffffffffffffffffff161415610a40576040517f08c379a0000000000000000000000000000000000000000000000000000000008152600401610a3790611473565b60405180910390fd5b600073ffffffffffffffffffffffffffffffffffffffff168273ffffffffffffffffffffffffffffffffffffffff161415610ab0576040517f08c379a0000000000000000000000000000000000000000000000000000000008152600401610aa790611505565b60405180910390fd5b610abb838383610db1565b60008060008573ffffffffffffffffffffffffffffffffffffffff1673ffffffffffffffffffffffffffffffffffffffff16815260200190815260200160002054905081811015610b41576040517f08c379a0000000000000000000000000000000000000000000000000000000008152600401610b3890611597565b60405180910390fd5b8181036000808673ffffffffffffffffffffffffffffffffffffffff1673ffffffffffffffffffffffffffffffffffffffff16815260200190815260200160002081905550816000808573ffffffffffffffffffffffffffffffffffffffff1673ffffffffffffffffffffffffffffffffffffffff1681526020019081526020016000206000828254610bd491906111f5565b925050819055508273ffffffffffffffffffffffffffffffffffffffff168473ffffffffffffffffffffffffffffffffffffffff167fddf252ad1be2c89b69c2b068fc378daa952ba7f163c4a11628f55a4df523b3ef84604051610c389190610f94565b60405180910390a3610c4b848484610db6565b50505050565b600073ffffffffffffffffffffffffffffffffffffffff168273ffffffffffffffffffffffffffffffffffffffff161415610cc1576040517f08c379a0000000000000000000000000000000000000000000000000000000008152600401610cb890611603565b60405180910390fd5b610ccd60008383610db1565b8060026000828254610cdf91906111f5565b92505081905550806000808473ffffffffffffffffffffffffffffffffffffffff1673ffffffffffffffffffffffffffffffffffffffff1681526020019081526020016000206000828254610d3491906111f5565b925050819055508173ffffffffffffffffffffffffffffffffffffffff16600073ffffffffffffffffffffffffffffffffffffffff167fddf252ad1be2c89b69c2b068fc378daa952ba7f163c4a11628f55a4df523b3ef83604051610d999190610f94565b60405180910390a3610dad60008383610db6565b5050565b505050565b505050565b600081519050919050565b600082825260208201905092915050565b60005b83811015610df5578082015181840152602081019050610dda565b83811115610e04576000848401525b50505050565b6000601f19601f8301169050919050565b6000610e2682610dbb565b610e308185610dc6565b9350610e40818560208601610dd7565b610e4981610e0a565b840191505092915050565b60006020820190508181036000830152610e6e8184610e1b565b905092915050565b600080fd5b600073ffffffffffffffffffffffffffffffffffffffff82169050919050565b6000610ea682610e7b565b9050919050565b610eb681610e9b565b8114610ec157600080fd5b50565b600081359050610ed381610ead565b92915050565b6000819050919050565b610eec81610ed9565b8114610ef757600080fd5b50565b600081359050610f0981610ee3565b92915050565b60008060408385031215610f2657610f25610e76565b5b6000610f3485828601610ec4565b9250506020610f4585828601610efa565b9150509250929050565b60008115159050919050565b610f6481610f4f565b82525050565b6000602082019050610f7f6000830184610f5b565b92915050565b610f8e81610ed9565b82525050565b6000602082019050610fa96000830184610f85565b92915050565b600080600060608486031215610fc857610fc7610e76565b5b6000610fd686828701610ec4565b9350506020610fe786828701610ec4565b9250506040610ff886828701610efa565b9150509250925092565b600060ff82169050919050565b61101881611002565b82525050565b6000602082019050611033600083018461100f565b92915050565b60006020828403121561104f5761104e610e76565b5b600061105d84828501610efa565b91505092915050565b60006020828403121561107c5761107b610e76565b5b600061108a84828501610ec4565b91505092915050565b600080604083850312156110aa576110a9610e76565b5b60006110b885828601610ec4565b92505060206110c985828601610ec4565b9150509250929050565b7f4e487b7100000000000000000000000000000000000000000000000000000000600052602260045260246000fd5b6000600282049050600182168061111a57607f821691505b6020821081141561112e5761112d6110d3565b5b50919050565b7f45524332303a207472616e7366657220616d6f756e742065786365656473206160008201527f6c6c6f77616e6365000000000000000000000000000000000000000000000000602082015250565b6000611190602883610dc6565b915061119b82611134565b604082019050919050565b600060208201905081810360008301526111bf81611183565b9050919050565b7f4e487b7100000000000000000000000000000000000000000000000000000000600052601160045260246000fd5b600061120082610ed9565b915061120b83610ed9565b9250827fffffffffffffffffffffffffffffffffffffffffffffffffffffffffffffffff038211156112405761123f6111c6565b5b828201905092915050565b7f45524332303a2064656372656173656420616c6c6f77616e63652062656c6f7760008201527f207a65726f000000000000000000000000000000000000000000000000000000602082015250565b60006112a7602583610dc6565b91506112b28261124b565b604082019050919050565b600060208201905081810360008301526112d68161129a565b9050919050565b7f45524332303a20617070726f76652066726f6d20746865207a65726f2061646460008201527f7265737300000000000000000000000000000000000000000000000000000000602082015250565b6000611339602483610dc6565b9150611344826112dd565b604082019050919050565b600060208201905081810360008301526113688161132c565b9050919050565b7f45524332303a20617070726f766520746f20746865207a65726f20616464726560008201527f7373000000000000000000000000000000000000000000000000000000000000602082015250565b60006113cb602283610dc6565b91506113d68261136f565b604082019050919050565b600060208201905081810360008301526113fa816113be565b9050919050565b7f45524332303a207472616e736665722066726f6d20746865207a65726f20616460008201527f6472657373000000000000000000000000000000000000000000000000000000602082015250565b600061145d602583610dc6565b915061146882611401565b604082019050919050565b6000602082019050818103600083015261148c81611450565b9050919050565b7f45524332303a207472616e7366657220746f20746865207a65726f206164647260008201527f6573730000000000000000000000000000000000000000000000000000000000602082015250565b60006114ef602383610dc6565b91506114fa82611493565b604082019050919050565b6000602082019050818103600083015261151e816114e2565b9050919050565b7f45524332303a207472616e7366657220616d6f756e742065786365656473206260008201527f616c616e63650000000000000000000000000000000000000000000000000000602082015250565b6000611581602683610dc6565b915061158c82611525565b604082019050919050565b600060208201905081810360008301526115b081611574565b9050919050565b7f45524332303a206d696e7420746f20746865207a65726f206164647265737300600082015250565b60006115ed601f83610dc6565b91506115f8826115b7565b602082019050919050565b6000602082019050818103600083015261161c816115e0565b905091905056fea2646970667358221220977e55464fd6108a9f6aa434d9276a8ad51e7c66e48f1dc6f9358919cc73f10564736f6c634300080a0033",
  "immutableReferences": {},
  "source": "pragma solidity ^0.8.10;\n\nimport \"@openzeppelin/contracts/token/ERC20/IERC20.sol\";\nimport \"@openzeppelin/contracts/utils/Address.sol\";\nimport \"@openzeppelin/contracts/token/ERC20/utils/SafeERC20.sol\";\nimport \"@openzeppelin/contracts/token/ERC20/ERC20.sol\";\nimport \"@openzeppelin/contracts/token/ERC20/ERC20.sol\";\n\ncontract BhtToken is ERC20 {\n    constructor(uint256 _initamt) public ERC20(\"BhtToken\", \"BHTT\") {\n        _mint(msg.sender, _initamt);\n    }\n\n    function giveCoin(uint256 amount) public payable {\n        _mint(msg.sender, amount);\n    }\n}\n",
  "sourcePath": "/Users/ishan/Desktop/eth_dev/contracts/BhtToken.sol",
  "compiler": {
    "name": "solc",
    "version": "0.8.10+commit.fc410830.Emscripten.clang"
  },
  "schemaVersion": "3.4.4",
  "updatedAt": "2021-12-26T02:52:05.693Z",
  "networkType": "ethereum",
  "devdoc": {
    "kind": "dev",
    "methods": {
      "allowance(address,address)": {
        "details": "See {IERC20-allowance}."
      },
      "approve(address,uint256)": {
        "details": "See {IERC20-approve}. Requirements: - `spender` cannot be the zero address."
      },
      "balanceOf(address)": {
        "details": "See {IERC20-balanceOf}."
      },
      "decimals()": {
        "details": "Returns the number of decimals used to get its user representation. For example, if `decimals` equals `2`, a balance of `505` tokens should be displayed to a user as `5.05` (`505 / 10 ** 2`). Tokens usually opt for a value of 18, imitating the relationship between Ether and Wei. This is the value {ERC20} uses, unless this function is overridden; NOTE: This information is only used for _display_ purposes: it in no way affects any of the arithmetic of the contract, including {IERC20-balanceOf} and {IERC20-transfer}."
      },
      "decreaseAllowance(address,uint256)": {
        "details": "Atomically decreases the allowance granted to `spender` by the caller. This is an alternative to {approve} that can be used as a mitigation for problems described in {IERC20-approve}. Emits an {Approval} event indicating the updated allowance. Requirements: - `spender` cannot be the zero address. - `spender` must have allowance for the caller of at least `subtractedValue`."
      },
      "increaseAllowance(address,uint256)": {
        "details": "Atomically increases the allowance granted to `spender` by the caller. This is an alternative to {approve} that can be used as a mitigation for problems described in {IERC20-approve}. Emits an {Approval} event indicating the updated allowance. Requirements: - `spender` cannot be the zero address."
      },
      "name()": {
        "details": "Returns the name of the token."
      },
      "symbol()": {
        "details": "Returns the symbol of the token, usually a shorter version of the name."
      },
      "totalSupply()": {
        "details": "See {IERC20-totalSupply}."
      },
      "transfer(address,uint256)": {
        "details": "See {IERC20-transfer}. Requirements: - `recipient` cannot be the zero address. - the caller must have a balance of at least `amount`."
      },
      "transferFrom(address,address,uint256)": {
        "details": "See {IERC20-transferFrom}. Emits an {Approval} event indicating the updated allowance. This is not required by the EIP. See the note at the beginning of {ERC20}. Requirements: - `sender` and `recipient` cannot be the zero address. - `sender` must have a balance of at least `amount`. - the caller must have allowance for ``sender``'s tokens of at least `amount`."
      }
    },
    "version": 1
  },
  "userdoc": {
    "kind": "user",
    "methods": {},
    "version": 1
  }
}