{
  "contractName": "LiquidityPool",
  "abi": [
    {
      "inputs": [
        {
          "internalType": "address",
          "name": "tokenAddrOne",
          "type": "address"
        },
        {
          "internalType": "address",
          "name": "tokenAddrTwo",
          "type": "address"
        },
        {
          "internalType": "uint256",
          "name": "_basisFee",
          "type": "uint256"
        }
      ],
      "stateMutability": "nonpayable",
      "type": "constructor"
    },
    {
      "anonymous": false,
      "inputs": [
        {
          "indexed": false,
          "internalType": "address",
          "name": "_address",
          "type": "address"
        }
      ],
      "name": "LessLiquidity",
      "type": "event"
    },
    {
      "anonymous": false,
      "inputs": [
        {
          "indexed": false,
          "internalType": "address",
          "name": "_address",
          "type": "address"
        }
      ],
      "name": "NewLiquidity",
      "type": "event"
    },
    {
      "anonymous": false,
      "inputs": [
        {
          "indexed": false,
          "internalType": "address",
          "name": "_address",
          "type": "address"
        },
        {
          "indexed": false,
          "internalType": "uint256",
          "name": "tokens",
          "type": "uint256"
        }
      ],
      "name": "NewPool",
      "type": "event"
    },
    {
      "anonymous": false,
      "inputs": [
        {
          "indexed": false,
          "internalType": "address",
          "name": "_address",
          "type": "address"
        }
      ],
      "name": "SwapDone",
      "type": "event"
    },
    {
      "inputs": [],
      "name": "basisFee",
      "outputs": [
        {
          "internalType": "uint256",
          "name": "",
          "type": "uint256"
        }
      ],
      "stateMutability": "view",
      "type": "function",
      "constant": true
    },
    {
      "inputs": [],
      "name": "kVal",
      "outputs": [
        {
          "internalType": "uint256",
          "name": "",
          "type": "uint256"
        }
      ],
      "stateMutability": "view",
      "type": "function",
      "constant": true
    },
    {
      "inputs": [
        {
          "internalType": "address",
          "name": "",
          "type": "address"
        }
      ],
      "name": "liqTokenMap",
      "outputs": [
        {
          "internalType": "uint256",
          "name": "",
          "type": "uint256"
        }
      ],
      "stateMutability": "view",
      "type": "function",
      "constant": true
    },
    {
      "inputs": [],
      "name": "tokenOne",
      "outputs": [
        {
          "internalType": "contract IERC20",
          "name": "",
          "type": "address"
        }
      ],
      "stateMutability": "view",
      "type": "function",
      "constant": true
    },
    {
      "inputs": [],
      "name": "tokenOneCnt",
      "outputs": [
        {
          "internalType": "uint256",
          "name": "",
          "type": "uint256"
        }
      ],
      "stateMutability": "view",
      "type": "function",
      "constant": true
    },
    {
      "inputs": [
        {
          "internalType": "address",
          "name": "",
          "type": "address"
        }
      ],
      "name": "tokenOneFees",
      "outputs": [
        {
          "internalType": "uint256",
          "name": "",
          "type": "uint256"
        }
      ],
      "stateMutability": "view",
      "type": "function",
      "constant": true
    },
    {
      "inputs": [],
      "name": "tokenTwo",
      "outputs": [
        {
          "internalType": "contract IERC20",
          "name": "",
          "type": "address"
        }
      ],
      "stateMutability": "view",
      "type": "function",
      "constant": true
    },
    {
      "inputs": [],
      "name": "tokenTwoCnt",
      "outputs": [
        {
          "internalType": "uint256",
          "name": "",
          "type": "uint256"
        }
      ],
      "stateMutability": "view",
      "type": "function",
      "constant": true
    },
    {
      "inputs": [
        {
          "internalType": "address",
          "name": "",
          "type": "address"
        }
      ],
      "name": "tokenTwoFees",
      "outputs": [
        {
          "internalType": "uint256",
          "name": "",
          "type": "uint256"
        }
      ],
      "stateMutability": "view",
      "type": "function",
      "constant": true
    },
    {
      "inputs": [
        {
          "internalType": "uint256",
          "name": "tOneAmt",
          "type": "uint256"
        },
        {
          "internalType": "uint256",
          "name": "tTwoAmt",
          "type": "uint256"
        }
      ],
      "name": "initPool",
      "outputs": [],
      "stateMutability": "payable",
      "type": "function",
      "payable": true
    },
    {
      "inputs": [
        {
          "internalType": "uint256",
          "name": "tOneAmt",
          "type": "uint256"
        },
        {
          "internalType": "uint256",
          "name": "tTwoAmt",
          "type": "uint256"
        }
      ],
      "name": "addLiquidity",
      "outputs": [],
      "stateMutability": "payable",
      "type": "function",
      "payable": true
    },
    {
      "inputs": [
        {
          "internalType": "uint256",
          "name": "percent",
          "type": "uint256"
        }
      ],
      "name": "removeLiquidity",
      "outputs": [],
      "stateMutability": "payable",
      "type": "function",
      "payable": true
    },
    {
      "inputs": [
        {
          "internalType": "uint256",
          "name": "tokenAmtOne",
          "type": "uint256"
        }
      ],
      "name": "swapOutOne",
      "outputs": [],
      "stateMutability": "payable",
      "type": "function",
      "payable": true
    },
    {
      "inputs": [
        {
          "internalType": "uint256",
          "name": "tokenAmtTwo",
          "type": "uint256"
        }
      ],
      "name": "swapOutTwo",
      "outputs": [],
      "stateMutability": "payable",
      "type": "function",
      "payable": true
    },
    {
      "inputs": [],
      "name": "payoutRewards",
      "outputs": [],
      "stateMutability": "payable",
      "type": "function",
      "payable": true
    }
  ],
  "bytecode": "0x60806040523480156200001157600080fd5b50604051620026a0380380620026a083398181016040528101906200003791906200016d565b826000806101000a81548173ffffffffffffffffffffffffffffffffffffffff021916908373ffffffffffffffffffffffffffffffffffffffff16021790555081600160006101000a81548173ffffffffffffffffffffffffffffffffffffffff021916908373ffffffffffffffffffffffffffffffffffffffff16021790555080600281905550505050620001c9565b600080fd5b600073ffffffffffffffffffffffffffffffffffffffff82169050919050565b6000620000fa82620000cd565b9050919050565b6200010c81620000ed565b81146200011857600080fd5b50565b6000815190506200012c8162000101565b92915050565b6000819050919050565b620001478162000132565b81146200015357600080fd5b50565b60008151905062000167816200013c565b92915050565b600080600060608486031215620001895762000188620000c8565b5b600062000199868287016200011b565b9350506020620001ac868287016200011b565b9250506040620001bf8682870162000156565b9150509250925092565b6124c780620001d96000396000f3fe6080604052600436106100e85760003560e01c80639cd441da1161008a578063c1e287a911610059578063c1e287a91461027e578063cf939068146102a9578063e7d18902146102d4578063f9b8d0f3146102ff576100e8565b80639cd441da146101de5780639e1b0045146101fa578063a6fa413914610216578063b719655414610253576100e8565b806349402ad1116100c657806349402ad11461013e578063810a7a331461015a578063971e1a66146101975780639c8f9f23146101c2576100e8565b80630d61fcbb146100ed57806329613086146101095780632f648db614610113575b600080fd5b61010760048036038101906101029190611d17565b61033c565b005b61011161078a565b005b34801561011f57600080fd5b506101286109e0565b6040516101359190611d53565b60405180910390f35b61015860048036038101906101539190611d17565b6109e6565b005b34801561016657600080fd5b50610181600480360381019061017c9190611dcc565b610e34565b60405161018e9190611d53565b60405180910390f35b3480156101a357600080fd5b506101ac610e4c565b6040516101b99190611d53565b60405180910390f35b6101dc60048036038101906101d79190611d17565b610e52565b005b6101f860048036038101906101f39190611df9565b6111af565b005b610214600480360381019061020f9190611df9565b61169b565b005b34801561022257600080fd5b5061023d60048036038101906102389190611dcc565b611c56565b60405161024a9190611d53565b60405180910390f35b34801561025f57600080fd5b50610268611c6e565b6040516102759190611d53565b60405180910390f35b34801561028a57600080fd5b50610293611c74565b6040516102a09190611e98565b60405180910390f35b3480156102b557600080fd5b506102be611c98565b6040516102cb9190611d53565b60405180910390f35b3480156102e057600080fd5b506102e9611c9e565b6040516102f69190611e98565b60405180910390f35b34801561030b57600080fd5b5061032660048036038101906103219190611dcc565b611cc4565b6040516103339190611d53565b60405180910390f35b6000811161037f576040517f08c379a000000000000000000000000000000000000000000000000000000000815260040161037690611f10565b60405180910390fd5b8060008054906101000a900473ffffffffffffffffffffffffffffffffffffffff1673ffffffffffffffffffffffffffffffffffffffff1663dd62ed3e33306040518363ffffffff1660e01b81526004016103db929190611f3f565b602060405180830381865afa1580156103f8573d6000803e3d6000fd5b505050506040513d601f19601f8201168201806040525081019061041c9190611f7d565b101561045d576040517f08c379a000000000000000000000000000000000000000000000000000000000815260040161045490611ff6565b60405180910390fd5b6000612710600254836104709190612045565b61047a91906120ce565b90506000818361048a91906120ff565b905060008160035461049c9190612133565b6005546104a991906120ce565b90506000816004546104bb91906120ff565b905060008054906101000a900473ffffffffffffffffffffffffffffffffffffffff1673ffffffffffffffffffffffffffffffffffffffff166323b872dd3330886040518463ffffffff1660e01b815260040161051a93929190612189565b6020604051808303816000875af1158015610539573d6000803e3d6000fd5b505050506040513d601f19601f8201168201806040525081019061055d91906121f8565b50600160009054906101000a900473ffffffffffffffffffffffffffffffffffffffff1673ffffffffffffffffffffffffffffffffffffffff1663a9059cbb33836040518363ffffffff1660e01b81526004016105bb929190612225565b6020604051808303816000875af11580156105da573d6000803e3d6000fd5b505050506040513d601f19601f820116820180604052508101906105fe91906121f8565b5082600360008282546106119190612133565b92505081905550806004600082825461062a91906120ff565b9250508190555060005b60078054905081101561074b576000600782815481106106575761065661224e565b5b9060005260206000200160009054906101000a900473ffffffffffffffffffffffffffffffffffffffff1690506000600660008373ffffffffffffffffffffffffffffffffffffffff1673ffffffffffffffffffffffffffffffffffffffff16815260200190815260200160002054905060055481886106d79190612045565b6106e191906120ce565b600860008473ffffffffffffffffffffffffffffffffffffffff1673ffffffffffffffffffffffffffffffffffffffff168152602001908152602001600020600082825461072f9190612133565b92505081905550505080806107439061227d565b915050610634565b507f7588ed498f5ce0cc2c65574961e81b38f72285ec4562032701cee5680e05bfd73360405161077b91906122c6565b60405180910390a15050505050565b6000600860003373ffffffffffffffffffffffffffffffffffffffff1673ffffffffffffffffffffffffffffffffffffffff1681526020019081526020016000205490506000600960003373ffffffffffffffffffffffffffffffffffffffff1673ffffffffffffffffffffffffffffffffffffffff1681526020019081526020016000205490506000600860003373ffffffffffffffffffffffffffffffffffffffff1673ffffffffffffffffffffffffffffffffffffffff168152602001908152602001600020819055506000600960003373ffffffffffffffffffffffffffffffffffffffff1673ffffffffffffffffffffffffffffffffffffffff1681526020019081526020016000208190555060008054906101000a900473ffffffffffffffffffffffffffffffffffffffff1673ffffffffffffffffffffffffffffffffffffffff1663a9059cbb33846040518363ffffffff1660e01b81526004016108f7929190612225565b6020604051808303816000875af1158015610916573d6000803e3d6000fd5b505050506040513d601f19601f8201168201806040525081019061093a91906121f8565b50600160009054906101000a900473ffffffffffffffffffffffffffffffffffffffff1673ffffffffffffffffffffffffffffffffffffffff1663a9059cbb33836040518363ffffffff1660e01b8152600401610998929190612225565b6020604051808303816000875af11580156109b7573d6000803e3d6000fd5b505050506040513d601f19601f820116820180604052508101906109db91906121f8565b505050565b60045481565b60008111610a29576040517f08c379a0000000000000000000000000000000000000000000000000000000008152600401610a2090611f10565b60405180910390fd5b8060008054906101000a900473ffffffffffffffffffffffffffffffffffffffff1673ffffffffffffffffffffffffffffffffffffffff1663dd62ed3e33306040518363ffffffff1660e01b8152600401610a85929190611f3f565b602060405180830381865afa158015610aa2573d6000803e3d6000fd5b505050506040513d601f19601f82011682018060405250810190610ac69190611f7d565b1015610b07576040517f08c379a0000000000000000000000000000000000000000000000000000000008152600401610afe90611ff6565b60405180910390fd5b600061271060025483610b1a9190612045565b610b2491906120ce565b905060008183610b3491906120ff565b9050600081600454610b469190612133565b600554610b5391906120ce565b9050600081600354610b6591906120ff565b9050600160009054906101000a900473ffffffffffffffffffffffffffffffffffffffff1673ffffffffffffffffffffffffffffffffffffffff166323b872dd3330886040518463ffffffff1660e01b8152600401610bc693929190612189565b6020604051808303816000875af1158015610be5573d6000803e3d6000fd5b505050506040513d601f19601f82011682018060405250810190610c0991906121f8565b5060008054906101000a900473ffffffffffffffffffffffffffffffffffffffff1673ffffffffffffffffffffffffffffffffffffffff1663a9059cbb33836040518363ffffffff1660e01b8152600401610c65929190612225565b6020604051808303816000875af1158015610c84573d6000803e3d6000fd5b505050506040513d601f19601f82011682018060405250810190610ca891906121f8565b508260036000828254610cbb9190612133565b925050819055508060046000828254610cd491906120ff565b9250508190555060005b600780549050811015610df557600060078281548110610d0157610d0061224e565b5b9060005260206000200160009054906101000a900473ffffffffffffffffffffffffffffffffffffffff1690506000600660008373ffffffffffffffffffffffffffffffffffffffff1673ffffffffffffffffffffffffffffffffffffffff1681526020019081526020016000205490506005548188610d819190612045565b610d8b91906120ce565b600860008473ffffffffffffffffffffffffffffffffffffffff1673ffffffffffffffffffffffffffffffffffffffff1681526020019081526020016000206000828254610dd99190612133565b9250508190555050508080610ded9061227d565b915050610cde565b507f7588ed498f5ce0cc2c65574961e81b38f72285ec4562032701cee5680e05bfd733604051610e2591906122c6565b60405180910390a15050505050565b60096020528060005260406000206000915090505481565b60025481565b806000108015610e63575060648111155b610ea2576040517f08c379a0000000000000000000000000000000000000000000000000000000008152600401610e999061232d565b60405180910390fd5b6000600660003373ffffffffffffffffffffffffffffffffffffffff1673ffffffffffffffffffffffffffffffffffffffff1681526020019081526020016000205411610f24576040517f08c379a0000000000000000000000000000000000000000000000000000000008152600401610f1b90612399565b60405180910390fd5b6000600660003373ffffffffffffffffffffffffffffffffffffffff1673ffffffffffffffffffffffffffffffffffffffff168152602001908152602001600020549050600060648383610f789190612045565b610f8291906120ce565b9050600060055482600354610f979190612045565b610fa191906120ce565b9050600060055483600454610fb69190612045565b610fc091906120ce565b90508260056000828254610fd491906120ff565b9250508190555060008054906101000a900473ffffffffffffffffffffffffffffffffffffffff1673ffffffffffffffffffffffffffffffffffffffff1663a9059cbb33846040518363ffffffff1660e01b8152600401611036929190612225565b6020604051808303816000875af1158015611055573d6000803e3d6000fd5b505050506040513d601f19601f8201168201806040525081019061107991906121f8565b50600160009054906101000a900473ffffffffffffffffffffffffffffffffffffffff1673ffffffffffffffffffffffffffffffffffffffff1663a9059cbb33836040518363ffffffff1660e01b81526004016110d7929190612225565b6020604051808303816000875af11580156110f6573d6000803e3d6000fd5b505050506040513d601f19601f8201168201806040525081019061111a91906121f8565b5082600660003373ffffffffffffffffffffffffffffffffffffffff1673ffffffffffffffffffffffffffffffffffffffff168152602001908152602001600020600082825461116a91906120ff565b925050819055507fb2711319401f6e49a61bf294d4c1b57b9450917666ce401d5b252f6a954b3817336040516111a091906122c6565b60405180910390a15050505050565b8160008054906101000a900473ffffffffffffffffffffffffffffffffffffffff1673ffffffffffffffffffffffffffffffffffffffff1663dd62ed3e33306040518363ffffffff1660e01b815260040161120b929190611f3f565b602060405180830381865afa158015611228573d6000803e3d6000fd5b505050506040513d601f19601f8201168201806040525081019061124c9190611f7d565b101561128d576040517f08c379a000000000000000000000000000000000000000000000000000000000815260040161128490611ff6565b60405180910390fd5b81600160009054906101000a900473ffffffffffffffffffffffffffffffffffffffff1673ffffffffffffffffffffffffffffffffffffffff1663dd62ed3e33306040518363ffffffff1660e01b81526004016112eb929190611f3f565b602060405180830381865afa158015611308573d6000803e3d6000fd5b505050506040513d601f19601f8201168201806040525081019061132c9190611f7d565b101561136d576040517f08c379a000000000000000000000000000000000000000000000000000000000815260040161136490611ff6565b60405180910390fd5b6000821415801561137f575060008114155b6113be576040517f08c379a00000000000000000000000000000000000000000000000000000000081526004016113b590612405565b60405180910390fd5b60008054906101000a900473ffffffffffffffffffffffffffffffffffffffff1673ffffffffffffffffffffffffffffffffffffffff166323b872dd3330856040518463ffffffff1660e01b815260040161141b93929190612189565b6020604051808303816000875af115801561143a573d6000803e3d6000fd5b505050506040513d601f19601f8201168201806040525081019061145e91906121f8565b50600160009054906101000a900473ffffffffffffffffffffffffffffffffffffffff1673ffffffffffffffffffffffffffffffffffffffff166323b872dd3330846040518463ffffffff1660e01b81526004016114be93929190612189565b6020604051808303816000875af11580156114dd573d6000803e3d6000fd5b505050506040513d601f19601f8201168201806040525081019061150191906121f8565b5081600360008282546115149190612133565b92505081905550806004600082825461152d9190612133565b92505081905550600081836115429190612045565b905080600560008282546115569190612133565b925050819055506000600660003373ffffffffffffffffffffffffffffffffffffffff1673ffffffffffffffffffffffffffffffffffffffff168152602001908152602001600020541415611609576007339080600181540180825580915050600190039060005260206000200160009091909190916101000a81548173ffffffffffffffffffffffffffffffffffffffff021916908373ffffffffffffffffffffffffffffffffffffffff1602179055505b80600660003373ffffffffffffffffffffffffffffffffffffffff1673ffffffffffffffffffffffffffffffffffffffff16815260200190815260200160002060008282546116589190612133565b925050819055507f24466a623421f7b00cabc49cd34f7c1de4a045f7fa2f0cc9cf96ed3e148f7b133360405161168e91906122c6565b60405180910390a1505050565b6000600554146116e0576040517f08c379a00000000000000000000000000000000000000000000000000000000081526004016116d790612471565b60405180910390fd5b8160008054906101000a900473ffffffffffffffffffffffffffffffffffffffff1673ffffffffffffffffffffffffffffffffffffffff1663dd62ed3e33306040518363ffffffff1660e01b815260040161173c929190611f3f565b602060405180830381865afa158015611759573d6000803e3d6000fd5b505050506040513d601f19601f8201168201806040525081019061177d9190611f7d565b10156117be576040517f08c379a00000000000000000000000000000000000000000000000000000000081526004016117b590611ff6565b60405180910390fd5b81600160009054906101000a900473ffffffffffffffffffffffffffffffffffffffff1673ffffffffffffffffffffffffffffffffffffffff1663dd62ed3e33306040518363ffffffff1660e01b815260040161181c929190611f3f565b602060405180830381865afa158015611839573d6000803e3d6000fd5b505050506040513d601f19601f8201168201806040525081019061185d9190611f7d565b101561189e576040517f08c379a000000000000000000000000000000000000000000000000000000000815260040161189590611ff6565b60405180910390fd5b600080831415905060008083141590508180156118b85750805b15611a025760008054906101000a900473ffffffffffffffffffffffffffffffffffffffff1673ffffffffffffffffffffffffffffffffffffffff166323b872dd3330876040518463ffffffff1660e01b815260040161191a93929190612189565b6020604051808303816000875af1158015611939573d6000803e3d6000fd5b505050506040513d601f19601f8201168201806040525081019061195d91906121f8565b50600160009054906101000a900473ffffffffffffffffffffffffffffffffffffffff1673ffffffffffffffffffffffffffffffffffffffff166323b872dd3330866040518463ffffffff1660e01b81526004016119bd93929190612189565b6020604051808303816000875af11580156119dc573d6000803e3d6000fd5b505050506040513d601f19601f82011682018060405250810190611a0091906121f8565b505b60008054906101000a900473ffffffffffffffffffffffffffffffffffffffff1673ffffffffffffffffffffffffffffffffffffffff166370a08231306040518263ffffffff1660e01b8152600401611a5b91906122c6565b602060405180830381865afa158015611a78573d6000803e3d6000fd5b505050506040513d601f19601f82011682018060405250810190611a9c9190611f7d565b600381905550600160009054906101000a900473ffffffffffffffffffffffffffffffffffffffff1673ffffffffffffffffffffffffffffffffffffffff166370a08231306040518263ffffffff1660e01b8152600401611afd91906122c6565b602060405180830381865afa158015611b1a573d6000803e3d6000fd5b505050506040513d601f19601f82011682018060405250810190611b3e9190611f7d565b600481905550600454600354611b549190612045565b6005819055506007339080600181540180825580915050600190039060005260206000200160009091909190916101000a81548173ffffffffffffffffffffffffffffffffffffffff021916908373ffffffffffffffffffffffffffffffffffffffff160217905550600554600660003373ffffffffffffffffffffffffffffffffffffffff1673ffffffffffffffffffffffffffffffffffffffff1681526020019081526020016000206000828254611c0e9190612133565b925050819055507fbe4222bc407cb12031595fc55b46531e46308d31e4572c9c4360d8ae790e1a3133600554604051611c48929190612225565b60405180910390a150505050565b60066020528060005260406000206000915090505481565b60035481565b60008054906101000a900473ffffffffffffffffffffffffffffffffffffffff1681565b60055481565b600160009054906101000a900473ffffffffffffffffffffffffffffffffffffffff1681565b60086020528060005260406000206000915090505481565b600080fd5b6000819050919050565b611cf481611ce1565b8114611cff57600080fd5b50565b600081359050611d1181611ceb565b92915050565b600060208284031215611d2d57611d2c611cdc565b5b6000611d3b84828501611d02565b91505092915050565b611d4d81611ce1565b82525050565b6000602082019050611d686000830184611d44565b92915050565b600073ffffffffffffffffffffffffffffffffffffffff82169050919050565b6000611d9982611d6e565b9050919050565b611da981611d8e565b8114611db457600080fd5b50565b600081359050611dc681611da0565b92915050565b600060208284031215611de257611de1611cdc565b5b6000611df084828501611db7565b91505092915050565b60008060408385031215611e1057611e0f611cdc565b5b6000611e1e85828601611d02565b9250506020611e2f85828601611d02565b9150509250929050565b6000819050919050565b6000611e5e611e59611e5484611d6e565b611e39565b611d6e565b9050919050565b6000611e7082611e43565b9050919050565b6000611e8282611e65565b9050919050565b611e9281611e77565b82525050565b6000602082019050611ead6000830184611e89565b92915050565b600082825260208201905092915050565b7f696e76616c6964207175616e7469747900000000000000000000000000000000600082015250565b6000611efa601083611eb3565b9150611f0582611ec4565b602082019050919050565b60006020820190508181036000830152611f2981611eed565b9050919050565b611f3981611d8e565b82525050565b6000604082019050611f546000830185611f30565b611f616020830184611f30565b9392505050565b600081519050611f7781611ceb565b92915050565b600060208284031215611f9357611f92611cdc565b5b6000611fa184828501611f68565b91505092915050565b7f6e6f7420656e6f75676820616c6c6f77616e6365000000000000000000000000600082015250565b6000611fe0601483611eb3565b9150611feb82611faa565b602082019050919050565b6000602082019050818103600083015261200f81611fd3565b9050919050565b7f4e487b7100000000000000000000000000000000000000000000000000000000600052601160045260246000fd5b600061205082611ce1565b915061205b83611ce1565b9250817fffffffffffffffffffffffffffffffffffffffffffffffffffffffffffffffff048311821515161561209457612093612016565b5b828202905092915050565b7f4e487b7100000000000000000000000000000000000000000000000000000000600052601260045260246000fd5b60006120d982611ce1565b91506120e483611ce1565b9250826120f4576120f361209f565b5b828204905092915050565b600061210a82611ce1565b915061211583611ce1565b92508282101561212857612127612016565b5b828203905092915050565b600061213e82611ce1565b915061214983611ce1565b9250827fffffffffffffffffffffffffffffffffffffffffffffffffffffffffffffffff0382111561217e5761217d612016565b5b828201905092915050565b600060608201905061219e6000830186611f30565b6121ab6020830185611f30565b6121b86040830184611d44565b949350505050565b60008115159050919050565b6121d5816121c0565b81146121e057600080fd5b50565b6000815190506121f2816121cc565b92915050565b60006020828403121561220e5761220d611cdc565b5b600061221c848285016121e3565b91505092915050565b600060408201905061223a6000830185611f30565b6122476020830184611d44565b9392505050565b7f4e487b7100000000000000000000000000000000000000000000000000000000600052603260045260246000fd5b600061228882611ce1565b91507fffffffffffffffffffffffffffffffffffffffffffffffffffffffffffffffff8214156122bb576122ba612016565b5b600182019050919050565b60006020820190506122db6000830184611f30565b92915050565b7f696e76616c69642072656d6f76616c2070657263656e74000000000000000000600082015250565b6000612317601783611eb3565b9150612322826122e1565b602082019050919050565b600060208201905081810360008301526123468161230a565b9050919050565b7f6e6f207374616b6520696e2074686520706f6f6c000000000000000000000000600082015250565b6000612383601483611eb3565b915061238e8261234d565b602082019050919050565b600060208201905081810360008301526123b281612376565b9050919050565b7f6e656564206e6f6e2d7a65726f2076616c756573000000000000000000000000600082015250565b60006123ef601483611eb3565b91506123fa826123b9565b602082019050919050565b6000602082019050818103600083015261241e816123e2565b9050919050565b7f616c726561647920696e697469616c697a656420706f6f6c0000000000000000600082015250565b600061245b601883611eb3565b915061246682612425565b602082019050919050565b6000602082019050818103600083015261248a8161244e565b905091905056fea2646970667358221220e7d5cc6feeadbddcf0d0b203310bbe42028fde94abd7ba2b290cb142955fe0bf64736f6c634300080a0033",
  "immutableReferences": {},
  "source": "pragma solidity ^0.8.10;\n\nimport \"@openzeppelin/contracts/token/ERC20/IERC20.sol\";\n\ncontract LiquidityPool {\n    IERC20 public tokenOne;\n    IERC20 public tokenTwo;\n    uint256 public basisFee;\n\n    uint256 public tokenOneCnt;\n    uint256 public tokenTwoCnt;\n    uint256 public kVal;\n\n    mapping(address => uint256) public liqTokenMap;\n    address[] private addressArray;\n\n    mapping(address => uint256) public tokenOneFees;\n    mapping(address => uint256) public tokenTwoFees;\n\n    // Events\n    event NewPool(address _address, uint256 tokens);\n    event NewLiquidity(address _address);\n    event LessLiquidity(address _address);\n    event SwapDone(address _address);\n\n    constructor(\n        address tokenAddrOne,\n        address tokenAddrTwo,\n        uint256 _basisFee\n    ) public {\n        tokenOne = IERC20(tokenAddrOne);\n        tokenTwo = IERC20(tokenAddrTwo);\n        basisFee = _basisFee;\n    }\n\n    function initPool(uint256 tOneAmt, uint256 tTwoAmt) public payable {\n        require(kVal == 0, \"already initialized pool\");\n        require(\n            tokenOne.allowance(msg.sender, address(this)) >= tOneAmt,\n            \"not enough allowance\"\n        );\n        require(\n            tokenTwo.allowance(msg.sender, address(this)) >= tOneAmt,\n            \"not enough allowance\"\n        );\n\n        bool validTokenOne = tOneAmt != 0;\n        bool validTokenTwo = tTwoAmt != 0;\n\n        if (validTokenOne && validTokenTwo) {\n            tokenOne.transferFrom(msg.sender, address(this), tOneAmt);\n            tokenTwo.transferFrom(msg.sender, address(this), tTwoAmt);\n        }\n        tokenOneCnt = tokenOne.balanceOf(address(this));\n        tokenTwoCnt = tokenTwo.balanceOf(address(this));\n        kVal = tokenOneCnt * tokenTwoCnt;\n        addressArray.push(msg.sender);\n        liqTokenMap[msg.sender] += kVal;\n\n        emit NewPool(msg.sender, kVal);\n    }\n\n    function addLiquidity(uint256 tOneAmt, uint256 tTwoAmt) public payable {\n        require(\n            tokenOne.allowance(msg.sender, address(this)) >= tOneAmt,\n            \"not enough allowance\"\n        );\n        require(\n            tokenTwo.allowance(msg.sender, address(this)) >= tOneAmt,\n            \"not enough allowance\"\n        );\n        require(tOneAmt != 0 && tTwoAmt != 0, \"need non-zero values\");\n\n        tokenOne.transferFrom(msg.sender, address(this), tOneAmt);\n        tokenTwo.transferFrom(msg.sender, address(this), tTwoAmt);\n        tokenOneCnt += tOneAmt;\n        tokenTwoCnt += tTwoAmt;\n        uint256 kTokens = tOneAmt * tTwoAmt;\n        kVal += kTokens;\n        if (liqTokenMap[msg.sender] == 0) {\n            addressArray.push(msg.sender);\n        }\n        liqTokenMap[msg.sender] += kTokens;\n        emit NewLiquidity(msg.sender);\n    }\n\n    // 0 to 100 is a invariant -- percent of holdings\n    function removeLiquidity(uint256 percent) public payable {\n        require(0 < percent && percent <= 100, \"invalid removal percent\");\n        require(liqTokenMap[msg.sender] > 0, \"no stake in the pool\");\n\n        uint256 tokens = liqTokenMap[msg.sender];\n        uint256 payout = (tokens * percent) / 100;\n        uint256 tokenOnePayout = (tokenOneCnt * payout) / kVal;\n        uint256 tokenTwoPayout = (tokenTwoCnt * payout) / kVal;\n        kVal -= payout;\n\n        tokenOne.transfer(msg.sender, tokenOnePayout);\n        tokenTwo.transfer(msg.sender, tokenTwoPayout);\n        liqTokenMap[msg.sender] -= payout;\n\n        emit LessLiquidity(msg.sender);\n    }\n\n    function swapOutOne(uint256 tokenAmtOne) public payable {\n        require(tokenAmtOne > 0, \"invalid quantity\");\n        require(\n            tokenOne.allowance(msg.sender, address(this)) >= tokenAmtOne,\n            \"not enough allowance\"\n        );\n\n        uint256 fee = (tokenAmtOne * basisFee) / 10000;\n        uint256 swapIn = tokenAmtOne - fee;\n        uint256 newTwoAmount = kVal / (tokenOneCnt + swapIn);\n        uint256 tokenOut = tokenTwoCnt - newTwoAmount;\n        tokenOne.transferFrom(msg.sender, address(this), tokenAmtOne);\n        tokenTwo.transfer(msg.sender, tokenOut);\n        tokenOneCnt += swapIn;\n        tokenTwoCnt -= tokenOut;\n\n        // fee aggregate\n        for (uint256 i = 0; i < addressArray.length; i++) {\n            address toAdd = addressArray[i];\n            uint256 liqTokens = liqTokenMap[toAdd];\n            tokenOneFees[toAdd] += (fee * liqTokens) / kVal;\n        }\n\n        emit SwapDone(msg.sender);\n    }\n\n    function swapOutTwo(uint256 tokenAmtTwo) public payable {\n        require(tokenAmtTwo > 0, \"invalid quantity\");\n        require(\n            tokenOne.allowance(msg.sender, address(this)) >= tokenAmtTwo,\n            \"not enough allowance\"\n        );\n\n        uint256 fee = (tokenAmtTwo * basisFee) / 10000;\n        uint256 swapIn = tokenAmtTwo - fee;\n        uint256 newOneAmount = kVal / (tokenTwoCnt + swapIn);\n        uint256 tokenOut = tokenOneCnt - newOneAmount;\n        tokenTwo.transferFrom(msg.sender, address(this), tokenAmtTwo);\n        tokenOne.transfer(msg.sender, tokenOut);\n        tokenOneCnt += swapIn;\n        tokenTwoCnt -= tokenOut;\n\n        // fee aggregate\n        for (uint256 i = 0; i < addressArray.length; i++) {\n            address toAdd = addressArray[i];\n            uint256 liqTokens = liqTokenMap[toAdd];\n            tokenOneFees[toAdd] += (fee * liqTokens) / kVal;\n        }\n\n        emit SwapDone(msg.sender);\n    }\n\n    function payoutRewards() public payable {\n        uint256 tokenOnePayout = tokenOneFees[msg.sender];\n        uint256 tokenTwoPayout = tokenTwoFees[msg.sender];\n        tokenOneFees[msg.sender] = 0;\n        tokenTwoFees[msg.sender] = 0;\n\n        tokenOne.transfer(msg.sender, tokenOnePayout);\n        tokenTwo.transfer(msg.sender, tokenTwoPayout);\n    }\n}\n",
  "sourcePath": "/Users/ishan/Desktop/eth_dev/contracts/LiquidityPool.sol",
  "compiler": {
    "name": "solc",
    "version": "0.8.10+commit.fc410830.Emscripten.clang"
  },
  "schemaVersion": "3.4.4",
  "updatedAt": "2021-12-26T02:52:05.704Z",
  "networkType": "ethereum",
  "devdoc": {
    "kind": "dev",
    "methods": {},
    "version": 1
  },
  "userdoc": {
    "kind": "user",
    "methods": {},
    "version": 1
  }
}